:020000040800F2
:100000007806002061020008A50F0008450D0008D1
:10001000A10F000859040008D910000800000000D2
:10002000000000000000000000000000BD100008FB
:100030005D04000800000000A90F0008C1100008BE
:100040007B0200087B0200087B0200087B0200089C
:100050007B0200087B0200087B0200087B0200088C
:100060007B0200087B0200087B0200087B0200087C
:100070007B0200087B0200087B0200087B0200086C
:100080007B0200087B0200087B02000800000000E1
:100090000000000000000000000000007B020008DB
:1000A0007B0200087B0200087B0200087B0200083C
:1000B0007B0200087B0200087B0200087B0200082C
:1000C0007B0200087B0200087B0200087B0200081C
:1000D0007B0200087B0200087B0200080000000091
:1000E0007B0200087B0200087B0200080000000081
:1000F0000000000000000000000000007B0200087B
:10010000000000007B0200087B0200087B02000860
:1001100000000000000000000000000000000000DF
:100120007B0200087B0200087B0200087B020008BB
:100130007B0200080000000000000000000000003A
:100140000000000000000000000000007B0200082A
:100150007B0200087B0200087B0200087B0200088B
:100160007B0200087B020008000000000000000085
:10017000000000000000000000000000000000007F
:10018000000000007B0200080000000000000000EA
:100190007B02000800F002F800F052F814A696E87E
:1001A000000CB244B344DA4501D100F049F8BAE892
:1001B0000F000FA696E83000A5EB040504EB060738
:1001C000AAEB0704A7F101074FEA15154FEA34140B
:1001D000A4F10104AC4201D300F032F813F0010F96
:1001E00018BFFB1A43F0010300F001F8DBE71847E2
:1001F0007C1100009C110000103A24BF78C878C11F
:10020000FAD8520724BF30C830C144BF04680C601C
:1002100070470000704700000023002400250026DE
:10022000103A28BF78C1FBD8520728BF30C148BF59
:100230000B6070471FB501F084F81FBD10B510BDED
:1002400000F0D0F81146FFF7F5FF00F047FF00F08F
:10025000EEF803B4FFF7F2FF03BC00F0F5F800007E
:100260000948804709480047FEE7FEE7FEE7FEE74A
:10027000FEE7FEE7FEE7FEE7FEE7FEE70448054986
:10028000054A064B70470000C5100008950100089C
:1002900078000020780600207802002078020020F4
:1002A00053EA020C00F069802DE9F04B4FF0000694
:1002B000002B1FBFB3FA83F503FA05F424FA05F601
:1002C0005E4012BF1643B2FA82F502FA05F4C5F198
:1002D00020051EBF22FA05FC44EA0C04203556EA2C
:1002E000044C4FEA144418BF641C4FF000084FF050
:1002F0000009904271EB030C39D3002919BFB1FA00
:1003000081F701FA07F6B0FA80F700FA07F6C7F1AD
:1003100020071EBF20FA07FC46EA0C062037B6FB72
:10032000F4FCA7EB0507103F07F01F0BCBF12006ED
:100330002CFA06F60CFA0BFB44BFB3460026202F1E
:10034000A4BF5E464FF0000B5BEA060C08BF4FF0FF
:10035000010B19EB0B0948EB0608ABFB027C06FB13
:1003600002CC0BFB03CCC01B71EB0C01C1E70B46AD
:10037000024641464846BDE8F08B13B5084318BF16
:100380004FF0FF300146AFF30080BDE81C407047DE
:100390004FF0000200B5134694469646203922BF1E
:1003A000A0E80C50A0E80C50B1F12001BFF4F7AF69
:1003B000090728BFA0E80C5048BF0CC05DF804EB4B
:1003C000890028BF40F8042B08BF704748BF20F8B9
:1003D000022B11F0804F18BF00F8012B70477047B7
:1003E00070477047754600F02BF8AE460500694629
:1003F000534620F00700854618B020B5FFF73EFFB2
:10040000BDE820404FF000064FF000074FF0000815
:100410004FF0000BAC46ACE8C009ACE8C009ACE852
:10042000C009ACE8C00921F007018D46704710B53E
:100430000446AFF300802046BDE81040FFF709BF37
:10044000004870471000002001491820ABBEFEE7AD
:100450002600020070470000FEE700007047000021
:10046000B0B5044600F0ECF8054640F20000C2F2D8
:1004700000000078611C18BF044400BF00F0E0F8E1
:10048000401BA042FAD3B0BD2DE9F04F82B000F17D
:100490003E4707F1FF77860546EA972741F20006B7
:1004A000C4F20206072243F6004EB04208BF0422FF
:1004B000C4F2010E042F38BF3A46002600274FF041
:1004C0000008009209E000BF08F101080237B8F106
:1004D000100F06F1040600F0A3800D68012202FA55
:1004E00008F415EA0409EFD0D1F804B003220BF0A8
:1004F000030CACF10105BA40012D6FEA020A0FD8D6
:100500008268CD6802EA0A02BD402A4382604268DE
:10051000A243CBF3001404FA08F42243426005E03E
:10052000BCF1030F02D14FF0030C1EE0C2688C68CF
:1005300002EA0A02BC402243BCF1020FC26014D19D
:100540006FF0030202EA58020244D2F820C006F01B
:100550001C040F230D69A3402CEA0303A5402B4381
:100560001362D1F804B00BF0030C02680CFA07F325
:1005700002EA0A021A431BF4403F0260A4D00022A0
:1005800043F644030192C4F202031A684FF6084C82
:1005900042F480421A601A68CFF6FF7C02F480426F
:1005A0000192019A28F00302724452F80C3006F0CE
:1005B0000C050F24AC40A343009C04FA05F52B4323
:1005C00042F80C30DEF808204B6842EA090543F691
:1005D0000C4CDC0258BF22EA0905CEF80850C4F2E0
:1005E000010CDCF800209C0242EA090558BF22EA0F
:1005F0000905CCF80050DEF804209C0342EA090506
:1006000058BF22EA0905CEF80450DEF80020DB03CB
:1006100042EA090558BF22EA0905CEF8005053E71F
:1006200002B0BDE8F08F00000069084018BF01204B
:1006300070470000002A08BF09048161704700006C
:1006400040F27000C2F200000068704740F2000003
:1006500040F27001C2F20000C2F2000100780A68A4
:10066000104408607047000080B543F60040C4F2B3
:100670000200016841F400710160016841F4806189
:100680000160016841F480710160032000F074F89A
:100690000F2000F005F800F027F8002080BD0000D2
:1006A00070B540F20006C2F2000640F2080132784E
:1006B000C2F200014FF47A730968B3FBF2F2044608
:1006C000B1FBF2F1084600F027FB0F2C4FF00105BB
:1006D00008D838B94FF0FF3021460022002500F03D
:1006E0001FF87460284670BD82B0002043F64001B8
:1006F0000190C4F202014A6842F480424A604A68AA
:1007000002F480420192019A0090086840F0805003
:100710000860086800F080500090009802B07047B0
:1007200010B54EF60C5CCEF2000CDCF80030C3F3D2
:10073000022E8EF00704042C28BF0424BEF103030C
:100740004FF0FF3E0EFA04F438BF0023A143994056
:100750000EFA03F39A43114300F00F0200F16043D5
:100760000901043A03F564436244002848BF02F1DA
:100770000C03197010BD00004EF60C51CEF20001B2
:100780000A684FF6FF031A4060F30A2242F08060C5
:1007900040F0FD7008607047002804BF01207047DA
:1007A0002DE9F04143F60808C4F202080446D8F8DF
:1007B000F8030D4600F00700884207D288F8F85386
:1007C000D8F8F80300F00700A84277D12068810725
:1007D00017D5410705D5D8F8001041F4E051C8F805
:1007E0000010010705D5D8F8001041F46041C8F8A1
:1007F0000010D8F80010A26821F0F0011143C8F8E9
:100800000010C00740D1D8F8F80300F00700A84254
:1008100007D988F8F853D8F8F80300F00700A84281
:100820004CD12068410707D5D8F80010E26821F4C0
:10083000E0511143C8F80010000708D5D8F80000AF
:10084000216920F4604040EAC100C8F8000000F0CF
:1008500055F8D8F8001041F25C32C1F30311C0F62C
:100860000002515C40F2080220FA01F140F204005B
:10087000C2F200000068C2F200021160FFF710FF30
:100880000020BDE8F08100BF6068811E022907D208
:1008900058F8081C89015CBF0120BDE8F08111E017
:1008A000012807D158F8081C89035CBF0120BDE866
:1008B000F08107E058F8081C890703D40120BDE83F
:1008C000F08100BFD8F8001021F003010843C8F8F8
:1008D0000000FFF7B5FE064641F28837D8F8000061
:1008E000616800F00C00B0EB810F8CD0FFF7A8FE20
:1008F000801BB842F2D90320BDE8F08110B543F661
:100900000404C4F20204606800F00C0008280BD054
:10091000042819BF42F20040C0F2F40047F640003C
:10092000C0F27D1010BD00BF206821682368490215
:1009300047F64001C0F27D1100F03F02C3F388107A
:100940005CBF42F20041C0F2F401A1FB00010023B0
:10095000FFF7A6FC21680222C1F3014102EB41012D
:10096000B0FBF1F010BD0000002804BF012070476B
:100970002DE9F04182B00446007843F60006C00736
:10098000C4F202060CD0B06800F00C00042840F05D
:1009900081803068800303D56068002800F06A8198
:1009A000207880071BD5B06810F00C0F09D0B06814
:1009B00000F00C00082840F087807068400200F1C9
:1009C00083803068800703D5E068012840F05281B9
:1009D0003068216920F0F80040EAC10030602078DA
:1009E000000713D4207840072AD4A569002D00F011
:1009F0003C81B06800F00C00082840F0A180012D77
:100A000040F01081012002B0BDE8F081606900284B
:100A100040F20000C4F2472000F07E800121C0F8BF
:100A2000801EFFF70DFE0546706F8007DAD4FFF7D2
:100A300007FE401B0228F7D9032002B0BDE8F08171
:100A4000306C5FEAC0080AD400200190306C40F09E
:100A500080503064306C00F080500190019847F273
:100A60000007C4F200073868C00547D4386840F46E
:100A700080703860FFF7E4FD054600BF3868C005A8
:100A80003CD4FFF7DDFD401B0228F7D9032002B05C
:100A9000BDE8F081B06800F00C00082803D1706850
:100AA00040023FF576AF6068B0F5803F07D0B0F503
:100AB000A02F40F09B80306840F480203060306888
:100AC00040F4803030609BE0E06800285CD000207B
:100AD000C4F2472001210160FFF7B2FD054600BFC7
:100AE000306880073FF574AFFFF7AAFD401B02286E
:100AF000F6D9032002B0BDE8F08100BFA06801284C
:100B000005D0052854D1306F40F004003067306FB5
:100B100040F00100306755E00021C0F8801EFFF76B
:100B20008FFD0546706F80077FF55CAFFFF788FD8E
:100B3000401B0228F6D9032002B0BDE8F08100BFB7
:100B40000027C4F2472700203866FFF779FD022D01
:100B500005460DD13068800140F19080FFF770FDAF
:100B6000401B02284FF00300F4D902B0BDE8F08129
:100B70003068800179D5FFF763FD401B02284FF0F4
:100B80000300F5D9F1E700BF0020C4F2472000219F
:100B90000160FFF755FD0546306880077FF51FAF00
:100BA000FFF74EFD401B02284FF00300F4D9DCE7AD
:100BB000316F002821F001013167316F21F004010C
:100BC00031677DD0FFF73CFD054641F2883700BF15
:100BD000306F800700F18680FFF732FD401BB8427E
:100BE000F6D9032002B0BDE8F08100BF31680028CB
:100BF00021F480313160316821F4802131607BD073
:100C0000FFF71EFD054600BF306880033FF5C8AE04
:100C1000FFF716FD401B6428F6D9032002B0BDE89B
:100C2000F08100BF7068E16900F480028A4221D13E
:100C3000216A00F03F028A421CD147F6C071626A05
:100C40000140B1EB821F15D1A16A4FF6FF73C903B2
:100C5000994300F44032A1F580318A420AD1E16A19
:100C600000F07060B0EB016F04D1002002B0BDE86D
:100C7000F08100BF012002B0BDE8F08104F11C0545
:100C80002FCD084340EA8210D9034FF6FF729143FB
:100C9000A1F5803140EA05600843706001203866A4
:100CA000FFF7CEFC044600BF30688001DDD4FFF7BB
:100CB000C7FC001B02284FF00300F5D955E700BF21
:100CC000FFF7BEFC054641F2883700BF306F800752
:100CD00008D5FFF7B5FC401BB8424FF00300F5D92B
:100CE00043E700BFB8F1000F3FF57FAE306C20F056
:100CF0008050306479E600BFFFF7A2FC054600BFD4
:100D0000306880037FF54CAEFFF79AFC401B6428E7
:100D10004FF00300F4D928E7411E0020B0EB116F1B
:100D20001CBF012070474EF21002CEF2000251604B
:100D30004EF62351CEF20001F0230B700721906094
:100D400011607047FEE70000B0B544A10D5C40F2B1
:100D50000044C4F2020405F0010220462021FFF7FE
:100D600069FC204608210122FFF764FC2046082187
:100D70000022FFF75FFC05F0020220462021FFF76A
:100D800059FC204608210122FFF754FC2046082187
:100D90000022FFF74FFC05F0040220462021FFF758
:100DA00049FC204608210122FFF744FC2046082187
:100DB0000022FFF73FFC05F0080220462021FFF744
:100DC00039FC204608210122FFF734FC2046082187
:100DD0000022FFF72FFC05F0100220462021FFF72C
:100DE00029FC204608210122FFF724FC2046082187
:100DF0000022FFF71FFC05F0200220462021FFF70C
:100E000019FC204608210122FFF714FC2046082186
:100E10000022FFF70FFC05F0400220462021FFF7DB
:100E200009FC204608210122FFF704FC2046082186
:100E30000022FFF7FFFB05F0800220462021FFF78C
:100E4000F9FB204608210122FFF7F4FB2046082188
:100E50000022BDE8B040FFF7EDBB00BFF5057657B7
:100E600087D3F345F7D7A7E7E697000070B50C46A0
:100E7000012140F2004501FA00F6C4F2020506F035
:100E8000010228462021FFF7D5FB28460821012230
:100E9000FFF7D0FB284608210022FFF7CBFB06F026
:100EA000020228462021FFF7C5FB2846082101221F
:100EB000FFF7C0FB284608210022FFF7BBFB06F026
:100EC000040228462021FFF7B5FB2846082101220D
:100ED000FFF7B0FB284608210022FFF7ABFB06F026
:100EE000080228462021FFF7A5FB284608210122F9
:100EF000FFF7A0FB284608210022FFF79BFB06F026
:100F0000100228462021FFF795FB284608210122E0
:100F1000FFF790FB284608210022FFF78BFB06F025
:100F2000200228462021FFF785FB284608210122C0
:100F3000FFF780FB284608210022FFF77BFB06F025
:100F4000400228462021FFF775FB28460821012290
:100F5000FFF770FB284608210022FFF76BFB06F025
:100F6000800228462021FFF765FB28460821012240
:100F7000FFF760FB284608210022FFF75BFB2046B5
:100F8000FFF7E2FE05F54064204601210122FFF74C
:100F900051FB204601210022BDE87040FFF74ABB0B
:100FA000FEE70000FEE7000070470000B0B540F229
:100FB0000044C4F2020404F54065284602210022E0
:100FC000FFF738FB284602210122FFF733FB2046BA
:100FD0001021FFF729FBC501204608210122FFF758
:100FE00029FB204608210022FFF724FB2046102180
:100FF000FFF71AFB45EA8015204608210122FFF77A
:1010000019FB204608210022FFF714FB204610217F
:10101000FFF70AFB45EA4015204608210122FFF7A9
:1010200009FB204608210022FFF704FB204610217F
:10103000FFF7FAFA45EA0015204608210122FFF7DA
:10104000F9FA204608210022FFF7F4FA2046102181
:10105000FFF7EAFA45EAC005204608210122FFF71A
:10106000E9FA204608210022FFF7E4FA2046102181
:10107000FFF7DAFA45EA8005204608210122FFF74A
:10108000D9FA204608210022FFF7D4FA2046102181
:10109000FFF7CAFA45EA4005204608210122FFF77A
:1010A000C9FA204608210022FFF7C4FA2046102181
:1010B000FFF7BAFA2843C0B2B0BD00007047000085
:1010C000FFF7C4BA4EF68850CEF20000016841F432
:1010D0007001016070470000FEE7000092B0FFF76A
:1010E000C3FA06AD281D2C21FFF752F9002643F65E
:1010F00030070196C4F20207386947F2000440F055
:10110000805038613869C4F2000400F080500190CA
:10111000019801962068022161F38F3020602068D9
:101120004FF0010A00F440400190019810200A900D
:1011300028460691CDF824A00C96FFF715FC0F2049
:10114000CDE9010601A80021CDE903660596FFF768
:1011500023FB0A9601963868072140F0100038609A
:101160003868002200F0100001900198019638685C
:101170004FF0070B40F008003860386800F00800B6
:10118000019001980196386840F001003860386895
:1011900000F00100019001980196386840F00200CB
:1011A0003860386804F5D03700F0020001900198EB
:1011B0003846FFF73FFA04F5CE35284640F6FF7172
:1011C0000022FFF737FA04F5C83948464FF48C413E
:1011D0000022FFF72FFA04F5CA38404638210022D2
:1011E000FFF728FA06AC38462146CDE906BACDE924
:1011F0000866FFF749F940F6FF70CDE9060A284670
:101200002146CDE90866FFF73FF94FF48C40CDE960
:10121000060A48462146CDE90866FFF735F9382029
:10122000CDE9060A40462146CDE90866FFF72CF9CC
:101230004CF6CD4849F69A1748F21F5944F6D35A4E
:1012400041F2597B42F67174CCF6CC48C1F699173D
:10125000C5F2EB19C1F2620ACDF2B71B5DE000BF27
:10126000012500200E21FFF701FEA4FB0801CE0896
:1012700006EB8600A4EB4000C1B20020FFF7F6FDAC
:101280000120FFF7EDF800200E21FFF7EFFDA6FB90
:10129000070101EB8100A6EB40010120FFF7E6FD0D
:1012A0000120FFF7DDF800200E21FFF7DFFDA4FB92
:1012B00009014809A0FB071202EB8201A0EB4101E2
:1012C0000220FFF7D3FD0120FFF7CAF800200E210E
:1012D000FFF7CCFDA4FB0A018809A0FB071202EB73
:1012E0008201A0EB41010320FFF7C0FD0120FFF7C1
:1012F000B7F800200E21FFF7B9FDA4FB0B01480B46
:10130000A0FB071202EB8201A0EB41010420FFF7D2
:10131000ADFD0120FFF7A4F82E46FFF747FE31068A
:1013200008BFE0289CD086F0010180F0E10008436E
:10133000C5B2B5FA85F040090444002D18BF354602
:101340008FE7F1EE100A4FF6FF71C0F2C03120EACC
:10135000010040F04070E1EE100A7047000000000C
:1013600000000000010203040607080990130008AA
:101370000000002010000000F8010008A013000881
:10138000100000206806000018020008000000009D
:1013900001000000100000000024F4000000000024
:040000050800019559
:00000001FF
