:020000040800F2
:10000000C0060020BD010008591400085114000862
:1000100055140008E50500086D14000800000000F4
:100020000000000000000000000000006114000853
:10003000E9050008000000005D14000865140008D0
:10004000D7010008D7010008D7010008D701000830
:10005000D7010008D7010008D7010008D701000820
:10006000D7010008D7010008D7010008D701000810
:10007000D7010008D7010008D7010008D701000800
:10008000D7010008D7010008D7010008D7010008F0
:10009000D7010008D7010008D7010008D7010008E0
:1000A000D7010008D7010008D7010008D7010008D0
:1000B000D7010008D7010008D7010008D7010008C0
:1000C000D7010008D7010008D7010008D7010008B0
:1000D000D7010008D7010008D7010008D7010008A0
:1000E000D7010008D7010008D701000800F002F886
:1000F00000F055F814A696E8000CB244B344DA4573
:1001000001D100F04CF8BAE80F000FA696E83000D5
:10011000A5EB040504EB0607AAEB0704A7F101070A
:100120004FEA15154FEA3414A4F10104AC4201D38F
:1001300000F035F813F0010F18BFFB1A43F001036C
:1001400000F001F8DBE71847A8140000C81400000D
:10015000103A24BF78C878C1FAD8520724BF30C8F3
:1001600030C144BF04680C60704700007047000055
:100170000023002400250026103A28BF78C1FBD8B0
:10018000520728BF30C148BF0B607047642900F098
:100190006980002070471FB51FBD10B510BD00F06D
:1001A000E7F91146FFF7F7FF01F074F900F005FADF
:1001B00003B4FFF7F2FF03BC00F00CFA09488047D4
:1001C00009480047FEE7FEE7FEE7FEE7FEE7FEE739
:1001D000FEE7FEE7FEE7FEE704480549054A064B51
:1001E0007047000069140008ED000008C0000020FE
:1001F000C0060020C0020020C00200200FB4044945
:1002000010B503AA029800F089F910BC5DF814FB40
:100210007000002070B5044685690068C10601D5EC
:10022000302600E02026C00707D070BDD4E90121A8
:1002300030469047206A401C20626D1EF6D570BD86
:1002400070B5044685690078C00707D170BDD4E950
:10025000012120209047206A401C20626D1EF6D5A7
:1002600070BD00002DE9F041064600241068752994
:10027000314616A510D0AFF30080002802DA4042C4
:1002800013A507E031688A0701D512A502E04907E6
:1002900004D511A5012401E0AFF3008000210A225A
:1002A00006F1240709E0B0FBF2FCB0FBF2F302FB1D
:1002B0001C00303078541846491C0028F3D12346DE
:1002C0002A463046BDE8F04100F0CEB800000000FC
:1002D0002D0000002B000000200000002DE9F05F41
:1002E000894604464FF0000ADFF824B1FB44C0F809
:1002F00020A02046E168884700287DD0252806D028
:10030000D4E901219047206A401C2062F1E70025D2
:100310005F462046E16888472028064607DB312EE5
:1003200005D2B81910F8200C08B10543F1E7A80769
:1003300001D525F00405C4F81CA00027C4F818A0B6
:100340002A2E09D0304601F022F938B304EB870891
:10035000303EC8F8186019E059F8041B204604EB39
:1003600087029161E1688847012F064618D1E0694C
:10037000002820DA25F020051DE0D8F8180000EB51
:10038000800006EB40003038C8F818002046E168CD
:100390008847064601F0FBF80028EED1012F0AD06D
:1003A0002E2E08D12046E16888477F1C0646022F82
:1003B00045F02005C4DBA069002803DA404245F07F
:1003C0000105A061E80701D025F01005A6B1A6F14E
:1003D0004100192802D8203645F400654A463146C6
:1003E000204625604D46FFF7D1FE60B1012807D0B9
:1003F000ED1D25F0070000E007E000F1080978E7AF
:1004000005F1040975E730467AE7206ABDE8F09FF8
:10041000AC1200004FF0000200B513469446964619
:10042000203922BFA0E80C50A0E80C50B1F1200107
:10043000BFF4F7AF090728BFA0E80C5048BF0CC0B5
:100440005DF804EB890028BF40F8042B08BF704713
:1004500048BF20F8022B11F0804F18BF00F8012B85
:1004600070477047704770472DE9F0470D46994631
:100470009246044600F124080168880604D5E06924
:1004800021F01001216000E00120A84201DD471B9E
:1004900000E00027A1697A1902EB0900081AA0619F
:1004A0002078C00602D42046FFF7B4FE002608E0FC
:1004B000D4E901211AF806009047206A401C761CF6
:1004C00020624E45F4DB2078C0060AD52046FFF7AF
:1004D000A1FE06E0D4E9012130209047206A401CAB
:1004E0002062381EA7F10107F4DC07E0D4E90121FE
:1004F00018F805009047206A401C2062281EA5F1CC
:100500000105F3DC2046FFF79BFE2078000602D5AC
:100510000220BDE8F0870120FBE70000074B70B523
:100520000D467B4400F011F80446284600F0A0FF79
:1005300010B14FF0FF3070BD204670BD4F0F00006E
:1005400001694A1C02610878704700B58FB0CDE997
:1005500001310021059105497944CDE90310114687
:100560006846FFF7BBFE0FB000BD0000E5FFFFFFD0
:10057000754600F02BF8AE4605006946534620F05C
:100580000700854618B020B5FFF726FEBDE82040DD
:100590004FF000064FF000074FF000084FF0000B3F
:1005A000AC46ACE8C009ACE8C009ACE8C009ACE8AE
:1005B000C00921F007018D46704710B50446AFF31E
:1005C00000802046BDE81040FFF7F2BD00487047AC
:1005D0001000002001491820ABBEFEE726000200F3
:1005E00070470000FEE7000070470000B0B5044609
:1005F00000F018F9054640F20000C2F20000007851
:10060000611C18BF044400BF00F00CF9401BA0425D
:10061000FAD3B0BD2DE9F04F82B00E68002E00F085
:10062000FD8041F20042C4F20102042340F2004E78
:10063000904208BF03234FF6FF7CC4F2010E0093E3
:1006400000240123C1F2100C4FF0000A4FF0000902
:1006500044E000BF012704F00C030F229A402BEA6C
:10066000020207FA03F34FEA9A051A4346F82520D7
:100670004E6840F20C45F202DEF8082054BF22EA30
:10068000080242EA0802C4F20105CEF808202A68EE
:10069000B30254BF22EA080242EA08022A60B30306
:1006A000DEF8042054BF22EA080242EA0802F303FB
:1006B000CEF80420DEF800204FF0010354BF22EAF8
:1006C000080242EA0802CEF800200E680AF1010A88
:1006D00036FA0AF204F1040400F0A08003FA0AFBDF
:1006E00016EA0B08F1D04E68664511DC122E55D87B
:1006F000DFE806F0340A44485454545454545454D3
:1007000054545454544C5000D1F80C9046E000BF5F
:100710004FF6FF72C1F2210296420FDC0022C1F2B5
:10072000110296421AD00022C1F21202964215D04E
:100730000022C1F22102964210D02FE00022C1F225
:10074000220296420AD00022C1F23102964205D01E
:100750000022C1F23202964220D100BF8A684AB11B
:10076000012A14BFC0F814B0C0F810B04FF0080947
:1007700014E000BF4FF0040910E000BFCA6802F1A6
:1007800008090BE04FF0000908E000BFCA6802F159
:10079000040903E0CA6802F10C0900BF22460646BC
:1007A000B8F5807F24BF203A043637680F2595407E
:1007B00027EA050509FA02F22A433260CA79D2060D
:1007C0007FF583AF41F21803C4F202031A68AEF555
:1007D0007E7642F001021A601A6802F0010201926C
:1007E000019A2AF0030256F802B040F60002C4F261
:1007F0000102904210D040F60042C4F20102904241
:100800003FF428AF41F20002C4F20102009F90427F
:1008100008BF02271FE700BF00271CE702B0BDE8A2
:10082000F08F000040F2BC00C2F200000068704788
:1008300040F2000040F2BC01C2F20000C2F200012E
:1008400000780A68104408607047000080B542F2E2
:100850000000C4F20200016841F0100101600320B1
:1008600000F07AF80F2000F005F800F027F80020DB
:1008700080BD000070B540F20006C2F2000640F2F2
:1008800008013278C2F200014FF47A730968B3FBB1
:10089000F2F20446B1FBF2F1084600F077FB0F2CB0
:1008A0004FF0010508D838B94FF0FF30214600223B
:1008B000002500F025F87460284670BD82B041F232
:1008C0001800C4F202000168022241F00101016037
:1008D000016801F0010101910199416841F08051E5
:1008E0004160406800F08050009000980420C4F2FD
:1008F0000100016862F31A61016002B070470000F4
:1009000010B54EF60C5CCEF2000CDCF80030C3F3F0
:10091000022E8EF00704042C28BF0424BEF103032A
:100920004FF0FF3E0EFA04F438BF0023A143994074
:100930000EFA03F39A43114300F00F0200F16043F3
:100940000901043A03F564436244002848BF02F1F8
:100950000C03197010BD00004EF60C51CEF20001D0
:100960000A684FF6FF031A4060F30A2242F08060E3
:1009700040F0FD7008607047002804BF01207047F8
:100980002DE9F04381B042F20008C4F202080446A7
:10099000D8F800000D4600F0070088420CD2D8F8C5
:1009A000000020F007002843C8F80000D8F8000035
:1009B00000F00700A8426CD1206841F204098107C9
:1009C000C4F2020917D5410705D5D9F8001041F442
:1009D000E061C9F80010010705D5D9F8001041F40D
:1009E0006051C9F80010D9F80010A26821F0F00198
:1009F0001143C9F80010C00742D1D8F8000000F038
:100A00000700A8420CD9D8F8000020F007002843BE
:100A1000C8F80000D8F8000000F00700A84238D15C
:100A20002068410707D5D9F80010E26821F4E06199
:100A30001143C9F80010000708D5D9F80000216952
:100A400020F4605040EAC100C9F80000D9F8002045
:100A500002F00C00082841F20020C0F27A0051D1C7
:100A600041F2C753C2F38341C0F60003595CD2037D
:100A70003CD440F60010C0F23D00484342E000BFC5
:100A8000606802280AD001282AD159F8041C890379
:100A900008D4012001B0BDE8F08300BF59F8041C60
:100AA0008901F6D5D9F8001021F003010843C9F8EF
:100AB0000000FFF7B7FE064641F28837D9F800007C
:100AC000616800F00C00B0EB810F96D0FFF7AAFE32
:100AD000801BB842F2D9032001B0BDE8F08300BF0B
:100AE00059F8041C8907D4D5DCE700BFD9F80020E9
:100AF00041F2C553C2F34042C0F600039A5C48433A
:100B0000B0FBF2F0D9F8001041F2AD52C1F303117D
:100B1000C0F60002515C40F2080220FA01F140F2F6
:100B20000400C2F200000068C2F200021160FFF788
:100B3000A1FE002001B0BDE8F083000040F20800F3
:100B400041F20401C2F20000C4F202010068096827
:100B500041F2BD52C1F30221C0F60002515CC8400F
:100B60007047000040F2080041F20401C2F20000A8
:100B7000C4F202010068096841F2BD52C1F3C2210A
:100B8000C0F60002515CC84070470000002804BF56
:100B9000012070472DE9F04182B00446007841F20F
:100BA0000006C007C4F202060CD0706800F00C000A
:100BB000042840F081803068800303D560680028F5
:100BC00000F04E81207880071BD5706810F00C0F64
:100BD00009D0706800F00C00082840F08B80706825
:100BE000C00300F187803068800703D520690128A1
:100BF00040F036813068616920F0F80040EAC100B9
:100C000030602078000713D4207840072CD4E569A1
:100C1000002D00F02081706800F00C00082840F0E2
:100C2000AF80012D40F00C81012002B0BDE8F081C1
:100C3000A069002800F08C800020C4F2422001212D
:100C4000C0F88014FFF7EEFD054600BF706A80070C
:100C500000F1BA80FFF7E6FD401B0228F6D9032019
:100C600002B0BDE8F08100BFF0695FEAC00808D4B7
:100C7000F06940F08050F061F06900F08050009021
:100C8000009847F20007C4F200073868C0054DD449
:100C9000386840F480703860FFF7C4FD054600BF37
:100CA0003868C00542D4FFF7BDFD401B6428F7D962
:100CB000032002B0BDE8F081706800F00C00082845
:100CC00003D17068C0033FF576AF6068002800F07C
:100CD0000981B0F5A02F00F01D81B0F5803F00F034
:100CE0001D81306820F480303060306820F480202E
:100CF00017E100BF2069002840F20000C4F2422042
:100D000000F08C8001210160FFF78CFD054600BFDB
:100D1000306880073FF56EAFFFF784FD401B022867
:100D2000F6D9032002B0BDE8F08100BFE0680028DA
:100D300000F09A80052800F0B180012800F0B28010
:100D4000306A20F001003062306A20F00400ACE02C
:100D50000020C4F242200021C0F88014FFF762FD99
:100D6000054600BF706A80077FF54EAFFFF75AFD5A
:100D7000401B0228F6D9032002B0BDE8F08100BF75
:100D80000027C4F2422700203866FFF74BFD022DF2
:100D900005460DD13068800140F1D680FFF742FD55
:100DA000401B02284FF00300F4D902B0BDE8F081E7
:100DB000306880014FD5FFF735FD401B02284FF00A
:100DC0000300F5D9F1E700BF40F20800C2F20000CD
:100DD000006844F6D351C1F26201A0FB0101480A48
:100DE000019000BF00BF0198411E002801913FF40F
:100DF0000BAF00BF0198411E002801913FF404AFE2
:100E000000BF0198411E002801913FF4FDAE00BFD4
:100E10000198411E00280191E4D1F5E6002101600E
:100E2000FFF700FD054600BF306880077FF5E9AE9B
:100E3000FFF7F8FC401B02284FF00300F4D9B4E799
:100E40007068216A00F480328A4209D1616A00F434
:100E50007010884204D1002002B0BDE8F08100BFCC
:100E6000012002B0BDE8F081306A20F0010030625C
:100E7000306A20F004003062FFF7D4FC054641F2EE
:100E8000883700BF306A800722D5FFF7CBFC401BB4
:100E9000B8424FF00300F5D987E700BF306A40F051
:100EA00004003062306A40F001003062FFF7BAFCA3
:100EB000054641F2883700BF306A800708D4FFF743
:100EC000B1FC401BB842F7D9032002B0BDE8F08165
:100ED000B8F1000F3FF59BAEF06920F08050F06153
:100EE00095E600BF306820F480303060306820F430
:100EF00080203060FFF796FC054600BF3068800315
:100F00007FF560AEFFF78EFC401B64284FF00300B6
:100F1000F4D94AE7306840F480203060306840F40B
:100F200080303060FFF77EFC054600BF30688003EC
:100F30003FF548AEFFF776FC401B6428F6D9032046
:100F400002B0BDE8F08100BF206AB0F5803F05D156
:100F50007168A26821F40031114371607168626A9E
:100F600021F4741111430843706001203866FFF7C3
:100F700059FC0446306880013FF56DAFFFF752FC25
:100F8000001B02284FF00300F4D90EE7411E002099
:100F9000B0EB116F1CBF012070474EF21002CEF271
:100FA000000251604EF62351CEF20001F0230B7087
:100FB0000721906011607047002804BF012070472E
:100FC00010B5044690F8410028B9002084F840008C
:100FD000204600F063F8242084F841002068D4E91A
:100FE0000212C36823F40053C360036923F440531F
:100FF0001A430261D4E904231143C268194341F240
:101000000C639A431143C1604169A26921F44071A4
:10101000114343F60002C4F201029042416103D041
:10102000FFF78CFD02E000BFFFF79CFDD4E9002331
:10103000192148439900B0FBF1F048F21F5CC5F25A
:10104000EB1CA0FB0C314FF69C734909C0F6FF73F3
:1010500001FB0300322303EB0010A0FB0C03F02084
:1010600000EA531000EB0110C3F3431108449060F1
:101070001069202120F490401061506920F02A006E
:101080005061D06840F40050D0600020606484F863
:10109000411084F84210606310BD000010B586B0A6
:1010A000006844F20041C4F2000188424FF00001A0
:1010B000CDE90411CDE9021134D044F60001C4F2A7
:1010C0000001884254D043F60001C4F20101884275
:1010D00040F07F8041F21800C4F20200016840F63F
:1010E000000441F4804101600168C4F2010401F48C
:1010F000804101910199016841F00401016000689B
:1011000002A900F00400019001984FF400700290D1
:1011100002200390032005902046FFF77BFA4FF44E
:1011200080604EE041F21800C4F20200416840F6CF
:10113000000441F4003141604168C4F2010401F44B
:10114000003101910199016841F0040101600068DA
:1011500002A900F0040001900198042002900220EE
:101160000390032005902046FFF754FA082028E05A
:1011700041F21800C4F20200416841F4802141604C
:10118000416801F4802101910199016841F0080151
:101190000160006802A900F00800019001984FF476
:1011A00080600290022003900320059040F600002A
:1011B000C4F2010000F580642046FFF72BFA4FF4DB
:1011C000006002900020CDE9030002A92046FFF74D
:1011D00021FA06B010BD00002DE9F04381B00446AD
:1011E00090F84100202840F0B180884600294FF057
:1011F000010000F0D6801646002A00F0D2800020C0
:10120000606421201D4684F84100FFF70BFBA68493
:10121000E684A1680646B1F5805F03D12069002805
:1012200000F0988047464FF00008E18C20680029C4
:1012300000F0968005F101090BE000BF47B317F8F5
:10124000011B4160E18C0139E184E18C002900F04F
:10125000878001680906F1D4B9F1000F0AD0EDB119
:10126000FFF7E0FA801BA84218D820680168090639
:10127000F6D5E3E701680906E0D4016809065CBF1A
:1012800001685FEA0161D9D401680906F2D5D5E7A2
:1012900038F8021B00276FF35F21D2E7206850E87F
:1012A000030F216820F4D07041E80302BAB320682C
:1012B00050E8030F216820F4D07041E8030272B3B4
:1012C000206850E8030F216820F4D07041E8030241
:1012D0002AB3206850E8030F216820F4D07041E859
:1012E0000302002ADAD11AE0206850E8050F2168CD
:1012F00020F0010041E80502DAB1206850E8050F4E
:10130000216820F0010041E8050292B1206850E810
:10131000050F216820F0010041E805024AB120686C
:1013200050E8050F216820F0010041E80502002A7D
:10133000DAD1202084F8410084F84200002084F8AB
:101340004000032001B0BDE8F08300BF022001B0DF
:10135000BDE8F0830027E18C206800297FF46AAFA4
:101360000168490619D4FDB1691C0DD1016849060F
:1013700013D4016849065CBF01685FEA41610CD47F
:1013800001684906F2D508E0FFF74CFA801BA84235
:101390000AD8206800684006F6D5202084F841006D
:1013A000002001B0BDE8F083206850E8030F2168F9
:1013B00020F4D07041E80302002A3ED0206850E8B3
:1013C000030F216820F4D07041E80302AAB320681B
:1013D00050E8030F216820F4D07041E8030262B3A3
:1013E000206850E8030F216820F4D07041E8030220
:1013F000002AD9D121E000BF206850E8050F2168FC
:1014000020F0010041E80502002A3FF492AF206875
:1014100050E8050F216820F0010041E80502002A8C
:101420003FF487AF206850E8050F216820F00100E5
:1014300041E80502002A3FF47CAF206850E8050F20
:10144000216820F0010041E80502002AD4D170E7AC
:10145000FEE70000FEE70000FEE700007047000026
:1014600070470000FFF7E4B970470000FEE7000096
:101470000020704780B582B0019040F27400C2F243
:10148000000001A901226423FFF7A6FE019802B023
:1014900080BD000090B0FFF7D9F906AC201D2421D3
:1014A000FEF7B8FF0220069001200A9010200B9052
:1014B000002520460D95FFF769FB28B1EFF310805A
:1014C00072B600BFFEE700BF0F20CDE9010501A8FD
:1014D0000021CDE903550595FFF74EFA20B1EFF352
:1014E000108072B6FEE700BF41F21800C4F202009D
:1014F0000168002641F00401016001680C2301F03D
:1015000004010691069901684FF4165241F0080152
:101510000160006843F6000100F00800069006989C
:1015200040F27400C2F20000C4F2010180E84600FB
:10153000C0E90366C0E90536C661FFF73DFD28B185
:10154000EFF3108072B600BFFEE700BF41F2D75440
:10155000C0F60004B6F1180518BF3546002600BFD6
:10156000002700BF2046294632463B46FEF746FE8E
:101570004FF47A70FFF73AF801373C2FF2D1013679
:101580003C2EEDD10026182DB8BF6E1CE2E7303896
:101590000A2801D20120704700207047040000088B
:1015A0000000000000000002000100001000000028
:1015B0000000000000010203040607080900000003
:1015C0000001020304010202030405060708090AD8
:1015D0000B0C0D0E0F101054696D653A202530323A
:1015E000643A253032643A25303264200A00000023
:1015F0001016000800000020100000005001000834
:101600002016000810000020B0060000700100083D
:1016100001000000100000000024F40000000000A1
:04000005080000ED02
:00000001FF
