:020000040800F2
:1000000008070020CD010008B51B0008AD1B000843
:10001000B11B0008450A0008C91B000800000000C9
:10002000000000000000000000000000BD1B0008F0
:10003000490A000800000000B91B0008C11B0008A5
:10004000E7010008E7010008E7010008E7010008F0
:10005000E7010008E7010008E7010008E7010008E0
:10006000E7010008E7010008E7010008E7010008D0
:10007000E7010008E7010008E7010008E7010008C0
:10008000E7010008E7010008E7010008E7010008B0
:10009000E7010008E7010008E7010008E7010008A0
:1000A000E7010008E7010008E7010008E701000890
:1000B000E7010008E7010008E7010008E701000880
:1000C000E7010008E7010008E7010008E701000870
:1000D000E7010008E7010008E7010008E701000860
:1000E000E7010008E7010008E701000800F002F856
:1000F00000F05DF814A696E8000CB244B344DA456B
:1001000001D100F054F8BAE80F000FA696E83000CD
:10011000A5EB040504EB0607AAEB0704A7F101070A
:100120004FEA15154FEA3414A4F10104AC4201D38F
:1001300000F03DF813F0010F18BFFB1A43F0010364
:1001400000F001F8DBE718474426000064260000B1
:10015000103A24BF78C878C1FAD8520724BF30C8F3
:1001600030C144BF04680C60704700007047000055
:100170000023002400250026103A28BF78C1FBD8B0
:10018000520728BF30C148BF0B607047662902F094
:100190009A82002070471FB500F0C2FA04000020C8
:1001A000002102F0EFF9E0601FBD10B510BD00F0B6
:1001B000D3FB1146FFF7EFFF01F018FD00F0F1FB54
:1001C00003B4FFF7F2FF03BC00F034FC094880479A
:1001D00009480047FEE7FEE7FEE7FEE7FEE7FEE729
:1001E000FEE7FEE7FEE7FEE704480549054A064B41
:1001F00070470000C51B0008ED0000080801002042
:100200000807002008030020080300200FB4044959
:1002100010B503AA029800F071FA10BC5DF814FB47
:10022000700000202DE9F0410E46044600202062B7
:100230002046E168884730B3252805D0D4E901215C
:100240009047206A401CF2E7E16820460027884773
:10025000050018D0A5F14100192802D820354FF427
:1002600000673246294620462760FFF78FFF40B1DE
:10027000012804D0F61D26F007060836D8E7361DFB
:10028000D6E72846DAE7206ABDE8F0814FF00002A1
:1002900000B5134694469646203922BFA0E80C507C
:1002A000A0E80C50B1F12001BFF4F7AF090728BF57
:1002B000A0E80C5048BF0CC05DF804EB890028BFD3
:1002C00040F8042B08BF704748BF20F8022B11F0FC
:1002D000804F18BF00F8012B704770477047704778
:1002E0002DE9FF4F0C461E464FF0FF378BB0D2E989
:1002F0000001DDF860800A908A46C1F30A5505B90D
:100300003D46002108464FF00000BAF1000F00F40E
:10031000400005DA00EB80004FF4400101EA500094
:100320004FEA9059B9F1010F00DDB9460A9850EA39
:100330004A000ED044F61050A5F2FF3545432F1465
:10034000B8F1000F1ED07542291E1EDDC9F1000252
:100350001CE0B8F1010F4FF0000001D0302103E0A4
:10036000F24305E02154401CB042FBDB3046002242
:10037000002121540B99C1F80880C1E900200FB079
:10038000BDE8F08FBD1B6D1CDEE74A4600DA69420E
:1003900006A800F067FA06AB93E8070003AB83E812
:1003A000070050460A9901F011FD8DE80700A0F5FD
:1003B00000501F3800900398002D0ADD42F21F0103
:1003C0004A460844002303A90390684601F07AFFD7
:1003D00009E0A0F500504A461F38002303A9039006
:1003E000684601F084FF8DE807000004000C03D08C
:1003F0004FF0FF30410800E01046B8F1000F03D085
:100400000022009215461EE0751E05D400F08CF9FE
:10041000303262556D1EF9D5B3460122084302D031
:1004200000227F1C04E02078302801D100227F1EAA
:10043000002A099784D01DE0112D07DA00F074F925
:10044000303262556D1C50EA0102F5D1084302D0EA
:100450000098C8B10EE00021681E05E0235C625CD4
:1004600063542254401E491C8142F7DBAB46A81B53
:10047000401E0990002004F80B000B98099AC0F860
:100480000880C0E9002B7AE711264FF0000857E7F3
:100490002DE9F04F88460446D21D22F0070191B0A5
:1004A000D1E90001CDE90A0102F058F802460B98A3
:1004B000C00F01D02D2007E02068810701D52B2037
:1004C00002E0202101EAC000032A099001D0072A96
:1004D00005DB03464146204600F084F90BE1207815
:1004E000800601D5E06900E00620B8F1650F81467D
:1004F00006D0B8F1660F18D0B8F1670F70D131E0AF
:100500000020B9F1110F009001DB112301E009F186
:1005100001030AAA01A90CA8FFF7E2FEDDE90C70AD
:10052000002609F10105834647E001204B46009073
:100530004FF000470AAA01A90CA8FFF7D1FEDDE998
:100540000DB00C995D46002610B909F101000D1897
:10055000B9EB050003D4C0F1FF3609F10105A5EBA5
:1005600009002BE0B9F1010F01DA4FF00109002079
:10057000B9F1110F0090484601DD112300E0034658
:100580000AAA01A90CA8FFF7ABFEDDE90C704D46E5
:1005900000268346207800070AD4AB4500DA5D4682
:1005A00001A8012D04DD411911F8011C302907D0E3
:1005B0004F4502DA17F1040F04DA012082460FE0FA
:1005C0006D1EEEE7002F02DCED1B3E4403E0781CBD
:1005D000A84200DD7D1CB81B00F1010A4FF0004766
:1005E0002078000703D4AA4501DB4FF0FF3A002131
:1005F000B7F1004F0DF143088DF8431024D00220CD
:100600002B23002F01DA7F422D230A21021EA0F1A5
:10061000010000DC5FB197FBF1FC97FBF1F201FBFD
:100620001C7C17460CF1300C08F801CDEEE7A8F160
:10063000010003702188090501D5452100E06521ED
:10064000A0F1010800F8011C09980FA9A1EB080707
:10065000FF1D00B10120411901EBEA70A169384486
:10066000081A401EA0612078C00602D42046AFF3CD
:100670000080099828B1D4E901219047206A401CE4
:1006800020622078C00622D52046AFF300801EE00D
:10069000002E04DBB34502DD01A8805D00E03020C0
:1006A000D4E901219047206A401C2062761CAAF1FF
:1006B00001005FEA000A0AD100F032F8C068016860
:1006C000405CD4E901219047206A401C2062281E2A
:1006D000A5F10105DCDC07E0D4E9012118F8010BE4
:1006E0009047206A401C2062381EA7F10107F3DC06
:1006F0002046AFF30080032011B041E6074B70B5F0
:100700000D467B4400F05BF80446284600F01CF9D7
:1007100010B14FF0FF3070BD204670BDC71400000F
:10072000004870473000002030B5B0F10A0271F186
:1007300000034FEA900E4EEA817EB0EB0E0061EBB3
:1007400091014FEA101E4EEA017E10EB0E0041EBC4
:1007500011114FEA102E4EEA016E10EB0E0041EB24
:1007600011214FEA104E4EEA014E10EB0E0041EB04
:100770001141401841F100014FEAD00040EA4170B8
:100780004FEAD1014FEA810444EA907410EB8005EE
:1007900044EB01046D1944EB0404521BA3414FF0D8
:1007A000000348BF0A3200D530BD401C41F10001B2
:1007B00030BD000001694A1C02610878704700B52D
:1007C0008FB0CDE901310021059105497944CDE98A
:1007D000031011466846FFF725FD0FB000BD00006D
:1007E000E5FFFFFF2DE9F0411F460446032601689F
:1007F000072A01F4006004DB08B116A505E016A580
:1008000003E008B115A500E015A521F01000206057
:10081000A069C01EA0610FB1401EA0612046AFF3C9
:1008200000804FB1D4E9012138469047206A401C2E
:100830002062C01C206206E0206AFAE7D4E90121A8
:1008400015F8010B9047761EF8D22046AFF30080D2
:10085000BDE8F0814E414E006E616E00494E46008B
:10086000696E66002DE9F047814616468AB0354824
:1008700078440DC88DE80D0032487844801C03ACE4
:100880000DC884E80D0041F69B300844372190FBE9
:10089000F1F290FBF1F5A5F1800501FB12041B3C80
:1008A00002D56442012000E00020DFF898A08046D5
:1008B0000027FA44AAF1BE0A0EE0E0070AD0324649
:1008C000684607EB470101230AEB810101F00FFDA8
:1008D0008DE8070064107F1C002CEED1194F7F4477
:1008E000AE3F19E0E80715D007EB04100DF1180A28
:1008F00090E80E008AE80E00C068F04201D1981915
:1009000008903246012306A903A801F0F0FC03ABCE
:1009100083E807006D10641C002DE3D14FF0010344
:1009200032466946B8F1000F03A802D001F0CAFCB4
:1009300001E001F0DCFCC9E90001C9F808200AB0B7
:10094000BDE8F087D41E0000007B00F080007047F7
:1009500000487047100000207546FFF7F9FFAE46CB
:1009600005006946534620F00700854618B020B5BB
:10097000FFF73AFCBDE820404FF000064FF00007BB
:100980004FF000084FF0000BAC46ACE8C009ACE8F3
:10099000C009ACE8C009ACE8C00921F007018D46E8
:1009A000704710B50446AFF300802046BDE8104004
:1009B000FFF706BC4FF0013C50F8042B51F8043B04
:1009C0009A4221D1A2EB0C03934313EACC1317D123
:1009D00050F8042B51F8043B9A4215D1A2EB0C03BA
:1009E000934313EACC130BD150F8042B51F8043B7A
:1009F0009A4209D1A2EB0C03934313EACC13DBD048
:100A00004FF00000704700BFD01A01BAB1FA81F16F
:100A100001F0180122FA01F0CB40DBB2C0B2C01ADB
:100A2000C1F120012CFA01F3D11A914311EAC3114B
:100A3000E6D1704701491820ABBEFEE72600020050
:100A400070470000FEE7000070470000B0B50446A4
:100A500000F024F9054640F20000C2F200000078E0
:100A6000611C18BF044400BF00F018F9401BA042ED
:100A7000FAD3B0BD2DE9F04F82B00E68002E00F021
:100A8000FD8041F20042C4F20102042340F2004E14
:100A9000904208BF03234FF6FF7CC4F2010E00937F
:100AA00000240123C1F2100C4FF0000A4FF000099E
:100AB00044E000BF012704F00C030F229A402BEA08
:100AC000020207FA03F34FEA9A051A4346F8252073
:100AD0004E6840F20C45F202DEF8082054BF22EACC
:100AE000080242EA0802C4F20105CEF808202A688A
:100AF000B30254BF22EA080242EA08022A60B303A2
:100B0000DEF8042054BF22EA080242EA0802F30396
:100B1000CEF80420DEF800204FF0010354BF22EA93
:100B2000080242EA0802CEF800200E680AF1010A23
:100B300036FA0AF204F1040400F0A08003FA0AFB7A
:100B400016EA0B08F1D04E68664511DC122E55D816
:100B5000DFE806F0340A444854545454545454546E
:100B600054545454544C5000D1F80C9046E000BFFB
:100B70004FF6FF72C1F2210296420FDC0022C1F251
:100B8000110296421AD00022C1F21202964215D0EA
:100B90000022C1F22102964210D02FE00022C1F2C1
:100BA000220296420AD00022C1F23102964205D0BA
:100BB0000022C1F23202964220D100BF8A684AB1B7
:100BC000012A14BFC0F814B0C0F810B04FF00809E3
:100BD00014E000BF4FF0040910E000BFCA6802F142
:100BE00008090BE04FF0000908E000BFCA6802F1F5
:100BF000040903E0CA6802F10C0900BF2246064658
:100C0000B8F5807F24BF203A043637680F25954019
:100C100027EA050509FA02F22A433260CA79D206A8
:100C20007FF583AF41F21803C4F202031A68AEF5F0
:100C30007E7642F001021A601A6802F00102019207
:100C4000019A2AF0030256F802B040F60002C4F2FC
:100C50000102904210D040F60042C4F201029042DC
:100C60003FF428AF41F20002C4F20102009F90421B
:100C700008BF02271FE700BF00271CE702B0BDE83E
:100C8000F08F00008068084018BF01207047000006
:100C9000002A08BF090401617047000040F20410F7
:100CA000C2F200000068704740F2000040F20411F8
:100CB000C2F20000C2F2000100780A681044086025
:100CC0007047000080B542F20000C4F202000168E3
:100CD00041F010010160032000F07AF80F2000F0CD
:100CE00005F800F027F8002080BD000070B540F244
:100CF0000006C2F2000640F208013278C2F200019A
:100D00004FF47A730968B3FBF2F20446B1FBF2F1D7
:100D1000084600F077FB0F2C4FF0010508D838B9D2
:100D20004FF0FF3021460022002500F025F87460C6
:100D3000284670BD82B041F21800C4F2020001687A
:100D4000022241F001010160016801F001010191FD
:100D50000199416841F080514160406800F0805045
:100D6000009000980420C4F20100016862F31A6147
:100D7000016002B07047000010B54EF60C5CCEF278
:100D8000000CDCF80030C3F3022E8EF00704042CB4
:100D900028BF0424BEF103034FF0FF3E0EFA04F413
:100DA00038BF0023A14399400EFA03F39A4311433D
:100DB00000F00F0200F160430901043A03F56443B7
:100DC0006244002848BF02F10C03197010BD0000F6
:100DD0004EF60C51CEF200010A684FF6FF031A409E
:100DE00060F30A2242F0806040F0FD7008607047B6
:100DF000002804BF012070472DE9F04381B042F282
:100E00000008C4F202080446D8F800000D4600F0BD
:100E1000070088420CD2D8F8000020F007002843D1
:100E2000C8F80000D8F8000000F00700A8426CD114
:100E3000206841F204098107C4F2020917D541076D
:100E400005D5D9F8001041F4E061C9F80010010798
:100E500005D5D9F8001041F46051C9F80010D9F84F
:100E60000010A26821F0F0011143C9F80010C0077A
:100E700042D1D8F8000000F00700A8420CD9D8F8F9
:100E8000000020F007002843C8F80000D8F8000050
:100E900000F00700A84238D12068410707D5D9F8EB
:100EA0000010E26821F4E0611143C9F80010000766
:100EB00008D5D9F80000216920F4605040EAC1004B
:100EC000C9F80000D9F8002002F00C00082841F20F
:100ED0000020C0F27A0051D142F27A73C2F383410A
:100EE000C0F60003595CD2033CD440F60010C0F2B7
:100EF0003D00484342E000BF606802280AD0012854
:100F00002AD159F8041C890308D4012001B0BDE896
:100F1000F08300BF59F8041C8901F6D5D9F80010F8
:100F200021F003010843C9F80000FFF7B7FE0646A9
:100F300041F28837D9F80000616800F00C00B0EB8E
:100F4000810F96D0FFF7AAFE801BB842F2D903208A
:100F500001B0BDE8F08300BF59F8041C8907D4D55F
:100F6000DCE700BFD9F8002042F27873C2F34042B8
:100F7000C0F600039A5C4843B0FBF2F0D9F80010C9
:100F800042F26072C1F30311C0F60002515C40F2FC
:100F9000080220FA01F140F20400C2F200000068E9
:100FA000C2F200021160FFF7A1FE002001B0BDE80F
:100FB000F083000040F2080041F20401C2F2000098
:100FC000C4F202010068096842F27072C1F30221A2
:100FD000C0F60002515CC8407047000040F20800B3
:100FE00041F20401C2F20000C4F202010068096883
:100FF00042F27072C1F3C221C0F60002515CC840D7
:1010000070470000002804BF012070472DE9F0411F
:1010100082B00446007841F20006C007C4F202061E
:101020000CD0706800F00C00042840F0818030681B
:10103000800303D56068002800F04E812078800787
:101040001BD5706810F00C0F09D0706800F00C0010
:10105000082840F08B807068C00300F187803068FA
:10106000800703D52069012840F036813068616926
:1010700020F0F80040EAC10030602078000713D467
:10108000207840072CD4E569002D00F0208170689D
:1010900000F00C00082840F0AF80012D40F00C81DA
:1010A000012002B0BDE8F081A069002800F08C802A
:1010B0000020C4F242200121C0F88014FFF7EEFDA9
:1010C000054600BF706A800700F1BA80FFF7E6FDB1
:1010D000401B0228F6D9032002B0BDE8F08100BF12
:1010E000F0695FEAC00808D4F06940F08050F06110
:1010F000F06900F080500090009847F20007C4F2B9
:1011000000073868C0054DD4386840F480703860F6
:10111000FFF7C4FD054600BF3868C00542D4FFF79D
:10112000BDFD401B6428F7D9032002B0BDE8F08163
:10113000706800F00C00082803D17068C0033FF508
:1011400076AF6068002800F00981B0F5A02F00F0AC
:101150001D81B0F5803F00F01D81306820F48030A3
:101160003060306820F4802017E100BF206900283B
:1011700040F20000C4F2422000F08C8001210160A6
:10118000FFF78CFD054600BF306880073FF56EAF66
:10119000FFF784FD401B0228F6D9032002B0BDE80A
:1011A000F08100BFE068002800F09A80052800F078
:1011B000B180012800F0B280306A20F00100306276
:1011C000306A20F00400ACE00020C4F2422000218C
:1011D000C0F88014FFF762FD054600BF706A800703
:1011E0007FF54EAFFFF75AFD401B0228F6D90320CA
:1011F00002B0BDE8F08100BF0027C4F24227002002
:101200003866FFF74BFD022D05460DD13068800191
:1012100040F1D680FFF742FD401B02284FF003004B
:10122000F4D902B0BDE8F081306880014FD5FFF7F6
:1012300035FD401B02284FF00300F5D9F1E700BF50
:1012400040F20800C2F20000006844F6D351C1F237
:101250006201A0FB0101480A019000BF00BF019894
:10126000411E002801913FF40BAF00BF0198411EC1
:10127000002801913FF404AF00BF0198411E0028EF
:1012800001913FF4FDAE00BF0198411E002801917D
:10129000E4D1F5E600210160FFF700FD054600BF3F
:1012A000306880077FF5E9AEFFF7F8FC401B0228A5
:1012B0004FF00300F4D9B4E77068216A00F480327B
:1012C0008A4209D1616A00F47010884204D100207A
:1012D00002B0BDE8F08100BF012002B0BDE8F0819E
:1012E000306A20F001003062306A20F00400306281
:1012F000FFF7D4FC054641F2883700BF306A80070B
:1013000022D5FFF7CBFC401BB8424FF00300F5D9C4
:1013100087E700BF306A40F004003062306A40F076
:1013200001003062FFF7BAFC054641F2883700BF82
:10133000306A800708D4FFF7B1FC401BB842F7D9E8
:10134000032002B0BDE8F081B8F1000F3FF59BAE7D
:10135000F06920F08050F06195E600BF306820F41D
:1013600080303060306820F480203060FFF796FCD9
:10137000054600BF306880037FF560AEFFF78EFC46
:10138000401B64284FF00300F4D94AE7306840F46A
:1013900080203060306840F480303060FFF77EFCA1
:1013A000054600BF306880033FF548AEFFF776FC86
:1013B000401B6428F6D9032002B0BDE8F08100BFCD
:1013C000206AB0F5803F05D17168A26821F4003130
:1013D000114371607168626A21F47411114308430A
:1013E000706001203866FFF759FC044630688001C0
:1013F0003FF56DAFFFF752FC001B02284FF00300D2
:10140000F4D90EE7411E0020B0EB116F1CBF012084
:1014100070474EF21002CEF2000251604EF6235198
:10142000CEF20001F0230B7007219060116070472D
:1014300090F83C20012A4FF0020236D010B580F817
:101440003D200268D2F804E0D2F808C00C682EF003
:101450007003234340F2FF74C4F20004A2425360BD
:101460000ADCB2F1804F13D040F20043C4F2000313
:101470009A420DD011E000BF42F60043C4F20103CE
:101480009A4205D040F60003C4F200039A4204D108
:1014900049682CF08003194391600121002280F8F3
:1014A0003D1080F83C20BDE8104010467047000019
:1014B000002804BF0120704710B5044690F83D0095
:1014C00028B9002084F83C00204600F067F802208C
:1014D00084F83D00206840F2FF730268C4F2000304
:1014E00042F6004C9842C4F2010C15DCB0F1804F7A
:1014F0001AD040F20041C4F20001884214D0984250
:1015000018DCB0F1804F1DD040F20041C4F2000160
:10151000884217D01AE000BF604505D040F60001B0
:10152000C4F200018842EAD1A16822F070020A43A5
:101530009842E6DD604505D040F60001C4F20001A6
:10154000884203D1216922F440720A43A36922F040
:101550008001D4F804E0E268194360450160C2628A
:10156000C0F828E002D16169CCF830100121416156
:10157000002084F8461084F83E1084F83F1084F868
:10158000401084F8411084F8421084F8431084F825
:10159000441084F8451084F83D1010BD006842F6F0
:1015A0000041C4F20101884218BF704781B041F286
:1015B0001800C4F20200016841F400610160006893
:1015C00000F400600090009801B0704790F83D1062
:1015D00001291CBF01207047022180F83D100068DE
:1015E00040F2FF71C4F20001884209DCB0F1804F83
:1015F00012D040F20041C4F2000188420CD012E047
:1016000042F60041C4F20101884205D040F60001D3
:10161000C4F20001884206D1816801F00701062961
:1016200004BF00207047016841F001010160002003
:101630007047000090F83C20012A4FF0020200F0B1
:10164000C58080B580F83D20D0F800C04FF6777295
:10165000DCF8083023EA0202CCF808200B684F2B94
:1016600028DC1F2B44DD202B45D0302B43D0402BD2
:1016700040F0AE80D1F804E0C968DCF82030DCF836
:10168000202022F00102CCF82020DCF8182022F0E3
:10169000F00242EA011123F00A0242EA0E02CCF8FB
:1016A0001810CCF82020DCF8081041F0470121F098
:1016B000300180E06F2B27DDB3F5005F48D0B3F534
:1016C000805F7AD0702B40F08380D1E901E3C96854
:1016D000DCF8082043EA0E0322F47F4243EA0121AA
:1016E0001143CCF80810DCF8081041F0770162E0F3
:1016F0000BB1102B6CD1DCF8081021F070011943EC
:1017000041F0070157E000BF502B35D0602B5FD16F
:10171000D1F804E0C968DCF82030DCF8202022F0A1
:101720001002CCF82020DCF8182022F4704242EAA3
:10173000013123F0A00242EA0E12CCF81810CCF8C6
:101740002020DCF8081041F0670121F0100132E0A0
:10175000D1E901E3C968DCF8082043EA0E0322F46A
:101760007F4243EA01211143CCF80810DCF808104D
:1017700041F480411FE000BFD1F804E0C968DCF803
:101780002030DCF8202022F00102CCF82020DCF808
:10179000182022F0F00242EA011123F00A0242EA84
:1017A0000E02CCF81810CCF82020DCF8081041F01C
:1017B000570121F02001CCF808100022012180F807
:1017C0003D10002180F83C10BDE880401046704775
:1017D0000122F3E7002804BF0120704710B504463A
:1017E00090F8410028B9002084F84000204600F01D
:1017F00063F8242084F841002068D4E90212C36809
:1018000023F40053C360036923F440531A43026175
:10181000D4E904231143C268194341F20C639A438B
:101820001143C1604169A26921F44071114343F63B
:101830000002C4F201029042416103D0FFF7BAFBFB
:1018400002E000BFFFF7CAFBD4E900231921484397
:101850009900B0FBF1F048F21F5CC5F2EB1CA0FB55
:101860000C314FF69C734909C0F6FF7301FB03006E
:10187000322303EB0010A0FB0C03F02000EA53100E
:1018800000EB0110C3F3431108449060106920215C
:1018900020F490401061506920F02A005061D06817
:1018A00040F40050D0600020606484F8411084F857
:1018B0004210606310BD000070B586B040F60004B1
:1018C000C4F20104006804F54051002688420496E1
:1018D00002D006B070BD00BF41F21800C4F2020091
:1018E000016802AD41F480410160016801F480416A
:1018F00001910199016841F00401016000682946E5
:1019000000F00400019001984FF400700290022052
:101910000390032005902046FFF7ACF84FF4806059
:10192000CDE90206204629460496FFF7A3F806B043
:1019300070BD00002DE9F04381B0044690F84100ED
:10194000202840F0B180884600294FF0010000F0C7
:10195000D6801646002A00F0D28000206064212044
:101960001D4684F84100FFF799F9A684E684A16832
:101970000646B1F5805F03D12069002800F0988009
:1019800047464FF00008E18C2068002900F096805F
:1019900005F101090BE000BF47B317F8011B4160D7
:1019A000E18C0139E184E18C002900F08780016835
:1019B0000906F1D4B9F1000F0AD0EDB1FFF76EF9C5
:1019C000801BA84218D8206801680906F6D5E3E70D
:1019D00001680906E0D4016809065CBF01685FEA96
:1019E0000161D9D401680906F2D5D5E738F8021BA0
:1019F00000276FF35F21D2E7206850E8030F2168CA
:101A000020F4D07041E80302BAB3206850E8030F15
:101A1000216820F4D07041E8030272B3206850E8D6
:101A2000030F216820F4D07041E803022AB3206834
:101A300050E8030F216820F4D07041E80302002A27
:101A4000DAD11AE0206850E8050F216820F0010083
:101A500041E80502DAB1206850E8050F216820F05E
:101A6000010041E8050292B1206850E8050F2168A5
:101A700020F0010041E805024AB1206850E8050F56
:101A8000216820F0010041E80502002ADAD1202077
:101A900084F8410084F84200002084F840000320CC
:101AA00001B0BDE8F08300BF022001B0BDE8F083C3
:101AB0000027E18C206800297FF46AAF016849069D
:101AC00019D4FDB1691C0DD10168490613D4016810
:101AD00049065CBF01685FEA41610CD401684906B0
:101AE000F2D508E0FFF7DAF8801BA8420AD8206890
:101AF00000684006F6D5202084F84100002001B09F
:101B0000BDE8F083206850E8030F216820F4D0700E
:101B100041E80302002A3ED0206850E8030F216804
:101B200020F4D07041E80302AAB3206850E8030F04
:101B3000216820F4D07041E8030262B3206850E8C5
:101B4000030F216820F4D07041E80302002AD9D1A4
:101B500021E000BF206850E8050F216820F0010057
:101B600041E80502002A3FF492AF206850E8050FD3
:101B7000216820F0010041E80502002A3FF487AF08
:101B8000206850E8050F216820F0010041E80502B7
:101B9000002A3FF47CAF206850E8050F216820F050
:101BA000010041E80502002AD4D170E7FEE70000F9
:101BB000FEE70000FEE700007047000070470000ED
:101BC000FFF772B870470000FEE7000080B582B0F2
:101BD000019040F2BC00C2F2000001A9012264237E
:101BE000FFF7A8FE019802B080BD000090B0FFF79B
:101BF00069F806AC201D2421FEF748FB0220069060
:101C000001200A9010200B90002520460D95FFF72B
:101C1000F9F928B1EFF3108072B600BFFEE700BFFC
:101C20000F20CDE9000568460021CDE90255049555
:101C3000FFF7DEF820B1EFF3108072B6FEE700BFC9
:101C4000002641F218000996C4F20200016840F62D
:101C5000000441F0040101600068C4F2010400F0D6
:101C60000400009000982046022100224FF0020854
:101C7000FFF70EF806AD012720462946CDE9067686
:101C80000896FEF7F7FE20462946CDE90687CDE9FE
:101C90000868FEF7EFFE40F2740004F51051C2F23E
:101CA000000040F2E7330996CDE90766CDE900660A
:101CB000032280E84600C0E90336C0E90566FFF765
:101CC000F7FB28B1EFF3108072B600BFFEE700BF4C
:101CD0004FF48050069040F27400C2F2000006A952
:101CE000FFF7A8FC20B1EFF3108072B6FEE700BF4B
:101CF00040F27405C2F2000569462846FFF798FBDA
:101D000020B1EFF3108072B6FEE700BF40F2BC00D6
:101D100004F54051C2F2000000270C234FF4165284
:101D200080E88600C0E90377C0E90537C761FFF79F
:101D300051FD28B1EFF3108072B600BFFEE700BF7F
:101D40002846FFF743FC4CF60938C8F63D581BA659
:101D5000204601210122FEF79BFF2868476200BF51
:101D6000416A022908D8416A022905D8416A022934
:101D700002D8416A0329F3D320460221FEF782FFED
:101D80000028F9D02868476220460221FEF77AFF32
:101D90000128F9D02868406A8000A0FB08014809A2
:101DA00000F038FC00F00AFC024630460B46FEF715
:101DB0002DFA4FF4C870FEF749FEC9E74B65742051
:101DC000517561203D202566000000005FEA400C4F
:101DD00008BF91F0000F4FEA8C234FEAC12243EA7B
:101DE00051514FEA1C5018BF00F5F0404FEA300047
:101DF00018BF41F000415FEA6C5C00F02980BCF143
:101E0000FF3F08BF40F080407047130C06BF12042C
:101E10004FF0100C4FF0000C130E04BF12020CF127
:101E2000080C130F04BF12010CF1040C930F04BF34
:101E300092000CF1020CD30F04BF52000CF1010C04
:101E400011464FF00002A0F11F00A0EB0C007047FC
:101E500011F0004F08BF704731F000413FF4D5AF9B
:101E60000B0C06BF09044FF0100C4FF0000C0B0ECA
:101E700004BF09020CF1080C0B0F04BF09010CF19F
:101E8000040C8B0F04BF89000CF1020CCB0F04BFB4
:101E900049000CF1010CCCF1200322FA03F341EAD2
:101EA000030102FA0CF2A0EB0C0000F101007047F4
:101EB00023F07F4720F07F4C80EA030000F00040D1
:101EC000ACEB070303F57C5303F1FF032DE98049D5
:101ED00009B44FEA144324EA03484FEA154B25EAB4
:101EE0000B4E0FF2042606EB13273E7803FB066722
:101EF000C7F5000707FB06F64FEAD64606F10206CD
:101F00004FEA543707FB066CCCF1005C4FEA1C47E4
:101F10002CEA074C0CFB06F507FB06F404EB154610
:101F20004FEA961649085FEA320234BF00204FF0AC
:101F300000404FEAD13706FB07FC4FEA1C4C0CFB74
:101F40000BF7D21B03FB0CF761EB07010CFB0EF741
:101F5000B0EB074072EB17420CFB08F734BFA2EB63
:101F60000742B2EB074261EB17414FEA0C444FEADC
:101F7000910706FB07FC4FEA1C4C0CFB0BF7B0EB80
:101F8000C74072EB573203FB0CF734BFA2EBC742DA
:101F9000B2EBC74261EB57310CFB0EF7B0EBC70059
:101FA00072EB57720CFB08F734BFA2EBC702B2EB1F
:101FB000C70261EB57714FEA816141EA92114FEA22
:101FC000826242EA90124FEA806004EBCC04039FE5
:101FD0004FEAD13706FB07FC4FEA1C4C0CFB0BF712
:101FE000D21B03FB0CF761EB07010CFB0EF7B0EB08
:101FF000074072EB17420CFB08F734BFA2EB074215
:10200000B2EB074261EB17414FEA8C5504EB9C247D
:102010004FEA910706FB07FC4FEA1C4C0CFB0BF741
:10202000B0EBC74072EB573203FB0CF734BFA2EBA7
:10203000C742B2EBC74261EB57310CFB0EF7B0EB76
:10204000C70072EB57720CFB08F734BFA2EBC70254
:10205000B2EBC70261EB57714FEA816141EA92111D
:102060004FEA826242EA90124FEA806015EB4C25FB
:1020700044F100044FEAD13706FB07FC4FEA1C4C41
:102080000CFB0BF7D21B03FB0CF761EB07010CFBFE
:102090000EF7B0EB074072EB17420CFB08F734BFAA
:1020A000A2EB0742B2EB074261EB17414FEA8131E5
:1020B00041EA92414FEA823242EA90424FEA80304E
:1020C0004FEA0C7615EB1C1544F1000448EA034373
:1020D0004EEA0B484FF0000EB2EB080C71EB030711
:1020E00024BF624639464EEB0E0E4FF0000B00182F
:1020F000524149414BEB0B0BB2EB080C71EB030760
:102100007BF1000B24BF624639464EEB0E0E4FF0BA
:10211000000B0018524149414BEB0B0BB2EB080C82
:1021200071EB03077BF1000B24BF624639464EEB8F
:102130000E0E51EA020718BF46F0010616EB0E76A6
:1021400055F1000254F1000103D5BDE88901BDE855
:102150000088BDE88901BDE80048B619524141EB4D
:102160000101A3F10103704780807F7E7D7C7B7A33
:102170007978777676757473727171706F6E6E6D33
:102180006C6C6B6A6A6968686766666564646363D9
:1021900062616160605F5F5E5E5D5D5C5C5B5B5A5F
:1021A0005A595958585757565655555554545353CC
:1021B00052525251515050504F4F4F4E4E4D4D4D27
:1021C0004C4C4C4B4B4B4A4A4A4949494848484772
:1021D00047474746464645454544444444434343B0
:1021E00043424242424141419C46002B30D4770059
:1021F0002BD04FEA37071CB503B44FF010004FF057
:102200001001BAF1000F06D0BCF1000FDCBF40F0A6
:10221000080040F008014FF000000FBCBDE810407E
:102220000BF1010BBBF1010F08BF5FEA170722BFDB
:1022300012F1010211F101014FF0004143F10003DD
:1022400000F0004043EA00007047F9D35708D0E798
:1022500046EA06464FEA164613F1400F1FDD13F11A
:10226000200FDFBF16430A46002120335B42BED059
:10227000C3F1200746EA06464FEA164602FA07F778
:1022800046EA070622FA03F2C3F1200701FA07F72C
:1022900042EA070221FA03F14FF00003A7E746EAFA
:1022A000020646EA06464FEA164646EA0106BCBF63
:1022B00046EA0646360C4FF000034FF000024FF09E
:1022C000000194E72DE9804C70B49A46934691E85A
:1022D000380007C831EA400C48BF34EA430C03D544
:1022E000FFF7E6FDFFF780FFF0BCBDE8008C2DE9AD
:1022F000804C70B49A46934691E8380007C810F0B5
:10230000804F08BF13F0804F03D100F005F8FFF7AE
:102310006BFFF0BCBDE8008C20F07F4723F07F4CC2
:1023200080EA030000F0004007EB0C03A3F57C53A8
:10233000A3F1FE0392F0000F00F0B38095F0000FC0
:1023400000F077802DE901494FEA114021EA004869
:102350004FEA144624EA064700FB06FC08FB06F693
:1023600007FB08F818EB06484CEB164C00FB07F788
:1023700018EB07484CEB17404FEA124B22EA0B4E82
:102380004FEA154625EA06470BFB06FC0EFB06F650
:1023900007FB0EFE1EEB064E4CEB164C0BFB07F735
:1023A0001EEB074E4CEB174B18EB0B0840F10000EF
:1023B00018EB0E0B58EB000840F100008F1A4FF09D
:1023C00000014FF000063CBFC943661B14BFB5EBCC
:1023D000040C00213CBFC943F61B4FEA174427EA0F
:1023E00004454FEA1C472CEA074C04FB076205FB37
:1023F00007F70CFB05F616EB074642EB174204FB0A
:102400000CFC16EB0C4642EB1C421BEB060658EB91
:10241000020241414EEA8E0E46EA9E0601D5BDE813
:102420000189B619524141EB0101A3F10103BDE855
:1024300001894FEA144524EA05464FEA114721EA8B
:10244000074C05FB07F406FB07F70CFB06F111EB45
:10245000074144EB174405FB0CFC11EB0C4144EB2A
:102460001C444FEA124722EA074C05FB07F206FB21
:1024700007F70CFB06F616EB074642EB174205FB87
:102480000CFC16EB0C4642EB1C456A1854F100019B
:1024900048BF7047B619524141EB0101A3F1010356
:1024A000704795F0000F37D04FEA114221EA0246FB
:1024B0004FEA144724EA074C02FB07F106FB07F733
:1024C0000CFB06F414EB074441EB174102FB0CFC38
:1024D00014EB0C4441EB1C414FEA154725EA074C2D
:1024E00002FB07F506FB07F70CFB06F616EB0746A3
:1024F00045EB174502FB0CFC16EB0C4645EB1C426A
:10250000121951F1000148BF7047B619524141EB11
:102510000101A3F1010370474FEA144524EA05467F
:102520004FEA114721EA074C05FB07F106FB07F7C5
:102530000CFB06F212EB074241EB174105FB0CFCCA
:1025400012EB0C4251EB1C414FF0000648BF7047A4
:10255000921841EB0101A3F101037047490050EAD1
:10256000C12018BF04204A0D18BF40F0010040F2FE
:10257000FF72B2EB515F08BF40F00200012808BFB4
:102580000520704710B500290AD00878002807D028
:1025900005487844FEF70EFA002801D0002010BD4F
:1025A0000248784410BD00001A0200001202000028
:1025B0000808A0F500114FEA3101704743004FEAC7
:1025C000D30C4FEA3C0C43401FBF40070CF1605155
:1025D00013F0FE4F70471CF0006F03D10CF0004168
:1025E000002070470CF0004343EA507040EACC00F2
:1025F00010B500F022F800BF000000924FEA000181
:10260000FFF7D6BF4FF00041A1F500214FF00000C9
:1026100070470000B0FA80F310FA03F2C3F19D0393
:102620000AD0D90501EB1220530638BF704700F1DC
:10263000010008BF20F0010070470EF1020E2EF0DD
:10264000030E5EF8044B244204D44FEA4102B2F177
:102650007F4F11D84FEA4003B3F17F4F0CD80ED112
:102660004FEAD07C0CEB4C0C0CF1020CB2F17F4F1A
:1026700008BF4CEBD17C04E04FF0080C01E04FEABE
:10268000D17C0CEB4C0324FA03F404F00704B4F1FE
:10269000040C06D20EEB840CBDE810404CF0010C8B
:1026A0006047DFE80CF0070802024FF00040A0F599
:1026B000800010BD0846420018BFD2F1807288BF6A
:1026C00000F0004010BDFDF7E3BE00000240000036
:1026D000000000A00000000005400000000000C84D
:1026E000000000000C4000000000409C00000000C2
:1026F000194000000020BCBE000000003440000073
:10270000BFC91B8E00000004B5400000504BCFD065
:102710006607E2CF010000006C4100003E8251AA32
:10272000DFEEA73401000000D9420000DCB5A0E2D2
:102730003A301F97FFFFFFFFB4450000FD25A0C8FA
:10274000E9A3C14FFFFFFFFFFF3F00000000008033
:1027500000000000FF3F00000000008000000000BB
:102760000000000000000000010203040607080941
:102770000000000001020304010202030405060731
:1027800008090A0B0C0D0E0F10100000C8270008D6
:10279000000000201000000050010008D8270008A9
:1027A00010000020F8060000700100081C00000066
:1027B00043000000F8FFFFFF0C0000000E000000C7
:1027C0000F0000002E0000000100000010000000BB
:0827D0000024F40000000000E9
:04000005080000ED02
:00000001FF
